:1000000012C02AC029C028C0E3C026C04FC124C0E6
:1000100023C022C021C020C020C11EC01DC01CC0E2
:100020001BC01AC019C011241FBECFEDCDBF10E0F8
:10003000A0E6B0E0E8EFF7E003C0C89531960D9276
:10004000A236B107D1F710E0A2E6B0E001C01D92E0
:10005000A137B107E1F7E3C1D3CF1FB8BD9A8EE452
:100060008EB98EB1807EE9F3BD98089588E38DB98D
:1000700087B38F7587BB88B3806A88BB80EF8EB9E2
:10008000BF9A0895F92FE82F908180E68EB9779B6B
:1000900017C0B799FECF80EE8EB98EB1807EE9F39E
:1000A0008EB1807A69F48FB1808396238623981766
:1000B00039F4D3DF8EB1807A19F480E090E00895AE
:1000C0008FEF90E00895F92FE82F80E48EB98EB17C
:1000D000807EE9F38EB1807A19F08FEF90E0089579
:1000E0008FB18083BADF80E090E008958FB9B7992F
:1000F000FECFBD9A80E48EB98EB1807EE9F3BD98C3
:100100008EB1807A69F48EE48EB98EB1807EE9F387
:100110008EB1807A29F4789903C080E090E0089548
:100120008FEF90E00895C698BE9A869A12B88CE038
:1001300089B988E18AB908955D9BFECF8699FECF83
:100140008CB908951F93CF93DF93162FD92FC82F03
:100150008AE401C08991F0DF1150E0F785EBECDF14
:10016000DF91CF911F910895F92FE82F5F9903C078
:1001700080E090E008958CB180838FEF90E0089547
:10018000209167008091610014C0923491F481E065
:1001900010C0292F207182E00CC09D3B49F422231E
:1001A00011F0C69801C0C69AF89410926000789435
:1001B00080E05F9B08C09CB1813059F3813028F307
:1001C0008230B1F7EACF20936700809361000895F1
:1001D0001F920F920FB60F9211248F939F93EF935C
:1001E000FF9382B3837C82BB81B3837C81BBB99A4A
:1001F000809162008093630008B603FE0AC0E0911C
:100200006200FF2784B595B5EE0FFF1FE859FF4F39
:1002100009C0E0916200FF27EE0FFF1FE859FF4F72
:100220008FEF9FEF91838083809162008F5F809337
:10023000620080916200843010F01092620088E0C9
:1002400088BF8FEF80936400FF91EF919F918F9112
:100250000F900FBE0F901F9018951F920F920FB620
:100260000F9211248F9380E88EBD1DBC1CBCB998E1
:1002700080916200813051F0813028F0823049F065
:10028000833061F409C08A9A929A08C08B9A939A33
:1002900005C08C9A949A02C08D9A959A81E88EBD79
:1002A0008F910F900FBE0F901F9018951F920F9275
:1002B0000FB60F9211242F933F938F939F933091FA
:1002C000700086B3809538279091660093239095AF
:1002D0009093660080916500832389278093650051
:1002E0002091700093238923282720937000809108
:1002F0006000882329F08091600081508093600025
:100300009F918F913F912F910F900FBE0F901F9053
:100310001895E199FECF8EBBE09A8DB39927089589
:10032000282F392FE199FECF2EBBE09A8DB32F5F96
:100330003F4F2EBBE09A2DB399273327322F222728
:10034000822B932B0895E199FECF8EBB6DBBF89461
:10035000E29AE19A7894E199FECF01968EBB872FBD
:1003600099278DBBF894E29AE19A78940895F92F31
:10037000E82F808199270895F92FE82F8181992707
:100380000895EF92FF920F931F93CF93DF9366E050
:1003900070E0F7D1E82EF92E082F192F0E5F1F4FAE
:1003A000912F802FBDDF845D944190F5DF2DCE2D00
:1003B000C050D0408C2F9D2FB3DF845D944140F519
:1003C000912F802FADDF082F192F8C2F9D2FA8DFA5
:1003D000081B190B912F802F880F991F880F991FC9
:1003E000000F111F800F911F60EF70E0DCD1062F0E
:1003F000172FDF2DCE2DCC5FDF4F8C2F9D2F90DF61
:100400000817190729F0712F602F8C2F9D2F9BDF64
:10041000DF91CF911F910F91FF90EF900895BF92C0
:10042000CF92DF92EF92FF920F931F93CF93DF93C0
:10043000CDB7DEB727970FB6F894DEBF0FBECDBF9E
:100440001F8288B38C6588BBB99A81B1836081B9FA
:1004500084E088B980E00ADE66DE89B7826089BF01
:1004600083E083BF8AEC94E19BBD8ABD8CE19FE170
:1004700099BD88BD89B7806689BF81E88EBD7894B3
:100480001A82BB2484EF89836EEF8C2F9D2F0196F7
:10049000F9DD8F3F09F4DEC0898180FF6AC083E007
:1004A000B81681F18B1530F091E0B916F9F09B1573
:1004B00018F112C085E0B81689F1B81648F190E835
:1004C000B91609F447C081E8B81609F448C0BB243E
:1004D000C1C00F5F053008F000E0FD2FEC2FE00FEA
:1004E000F11D838103DE8823A1F3B4C08B81FEDD7F
:1004F000882309F0AFC0FACF8C81F8DD882309F09A
:10050000A9C0FACF8D81F2DD882309F0A3C0FACF0C
:100510008E81ECDD882309F09DC0FACF8F81E6DD66
:10052000882309F097C0FACFF894E12FFF27EE0F48
:10053000FF1FE859FF4F808101817894D7DD882320
:1005400009F088C0802FD2DD882309F083C01F5FA7
:10055000143050F310E0E8CF0F5F083108F000E0EE
:10056000802F992780509040D4DEC0DD8823A1F3EE
:1005700071C08C2F9D2F0296A6DD8823D1F38A812E
:100580008232A9F1833228F4803269F0813249F451
:100590001CC0843209F443C0843278F1853209F4F6
:1005A00051C0B82E57C0F8946091680070916900EE
:1005B00000916A0010916B00789480E090E0C3DEB7
:1005C000712F602F86E090E03BC0F8946091680046
:1005D0007091690000916A0010916B00789482E03C
:1005E00090E0B1DE712F602F88E090E029C080E0BC
:1005F00090E0C7DE81E090E02AC0F89460916C0042
:1006000070916D0000916E0010916F0078948CE0F5
:1006100090E099DE712F602F82E190E011C0F89494
:1006200060916C0070916D0000916E0010916F00F0
:1006300078948EE090E087DE712F602F84E190E067
:1006400082DE06C082E090E09CDE83E090E099DEEE
:10065000B1E8BB2E95DD80916000882341F486EEE1
:100660008093600065E08C2F9D2F03966BDDF894DE
:100670008091700078948C75282F33279F8122FFFA
:1006800002C0916001C09E7F9F839F8123FF02C0B3
:10069000926001C09D7F9F839F8124FF02C0946070
:1006A00001C09B7F9F83207430709F81232B11F0AA
:1006B000986001C0977F9F8380916400882309F42C
:1006C000E1CEF8941092640080916300E82EFF243C
:1006D000FF2DEE2DEE0FFF1FE859FF4FC080D18098
:1006E000789495EDC91694E1D906E0F59F2D8E2DED
:1006F00066E070E046D0082F192F8050904010DE41
:10070000912F802F8C5F9F4F0BDE682F792F9D2DAF
:100710008C2D880F991F880F991FCC0CDD1C8C0D18
:100720009D1D41D0685F7F4FFD2FEC2F33966F3FAB
:10073000710531F02CF0EE0DFF1D8FEF808303C0AB
:10074000EE0DFF1D608384E090E0E80EF91E81E06D
:1007500090E002C0880F991FEA94E2F780952F81FC
:1007600028230DC084E090E0E80EF91E81E090E0BF
:1007700002C0880F991FEA94E2F72F81282B2F835C
:1007800081CE5527002480FF02C0060E571F660F3A
:10079000771F6115710521F096958795009799F758
:1007A000952F802D089597FB092E07260AD077FDF7
:1007B00004D00CD006D000201AF4709561957F4FBC
:1007C0000895F6F7909581959F4F0895AA1BBB1B3E
:1007D00051E107C0AA1FBB1FA617B70710F0A61B41
:1007E000B70B881F991F5A95A9F780959095682F88
:0807F000792F8A2F9B2F089539
:0207F8000302FA
:00000001FF
